:100000000C945D000C9485000C9485000C94850084
:100010000C9485000C9485000C9485000C9485004C
:100020000C9485000C9485000C9485000C9485003C
:100030000C9485000C9485000C9485000C9485002C
:100040000C94BC020C9485000C948A020C946402FB
:100050000C9485000C9485000C9485000C9485000C
:100060000C9485000C9485000000000024002700FB
:100070002A0000000000250028002B0004040404CE
:100080000404040402020202020203030303030342
:10009000010204081020408001020408102001021F
:1000A00004081020000000080002010000030407FB
:1000B0000000000000000000DE0911241FBECFEF89
:1000C000D8E0DEBFCDBF11E0A0E0B1E0E2E4F6E1B0
:1000D00002C005900D92A636B107D9F722E0A6E638
:1000E000B1E001C01D92A633B207E1F710E0CDE503
:1000F000D0E004C02197FE010E94190BCC35D10736
:10010000C9F70E9406030C941F0B0C940000AF92D9
:10011000BF92CF92DF92EF92FF920F931F93CF93F4
:10012000DF936C017B018B01040F151FEB015E0156
:10013000AE18BF08C017D10759F06991D601ED91EB
:10014000FC910190F081E02DC6010995892B79F78A
:10015000C501DF91CF911F910F91FF90EF90DF903C
:10016000CF90BF90AF900895FC01538D448D252F03
:1001700030E0842F90E0821B930B541710F0CF9641
:10018000089501970895FC01918D828D981761F073
:10019000A28DAE0FBF2FB11D5D968C91928D9F5F8A
:1001A0009F73928F90E008958FEF9FEF0895FC0169
:1001B000918D828D981731F0828DE80FF11D858D1C
:1001C00090E008958FEF9FEF0895FC01918D228DAF
:1001D000892F90E0805C9F4F821B91098F73992734
:1001E000089589E991E00E94E50021E0892B09F456
:1001F00020E0822F089580E090E0892B29F00E9472
:10020000F10081110C9400000895FC01A48DA80F49
:10021000B92FB11DA35ABF4F2C91848D90E0019648
:100220008F739927848FA689B7892C93A089B18968
:100230008C91837080648C93938D848D981306C009
:100240000288F389E02D80818F7D80830895EF926D
:10025000FF920F931F93CF93DF93EC0181E0888F80
:100260009B8D8C8D98131AC0E889F989808185FF50
:1002700015C09FB7F894EE89FF896083E889F989F2
:1002800080818370806480839FBF81E090E0DF91F4
:10029000CF911F910F91FF90EF900895F62E0B8D47
:1002A00010E00F5F1F4F0F731127E02E8C8D8E1102
:1002B0000CC00FB607FCFACFE889F989808185FF69
:1002C000F5CFCE010E940501F1CFEB8DEC0FFD2F94
:1002D000F11DE35AFF4FF0829FB7F8940B8FEA8924
:1002E000FB8980818062CFCFCF93DF93EC01888D33
:1002F0008823B9F0AA89BB89E889F9898C9185FDA1
:1003000003C0808186FD0DC00FB607FCF7CF8C912E
:1003100085FFF2CF808185FFEDCFCE010E940501E0
:10032000E9CFDF91CF91089590E0FC01EC55FF4FAC
:100330002491FC01E057FF4F3491FC01E458FF4F3A
:10034000E491EE23C9F0222339F0233001F1A8F41F
:10035000213019F1223029F1F0E0EE0FFF1FEE58A5
:10036000FF4FA591B4918FB7F894EC91611126C01D
:1003700030953E233C938FBF08952730A9F0283055
:10038000C9F0243049F7809180008F7D03C08091AF
:1003900080008F7780938000DFCF84B58F7784BD16
:1003A000DBCF84B58F7DFBCF8091B0008F778093BA
:1003B000B000D2CF8091B0008F7DF9CF3E2BDACF45
:1003C000CF93DF9390E0FC01E057FF4F24918458D6
:1003D0009F4FFC0184918823D1F090E0880F991FF2
:1003E000FC01E859FF4FA591B491FC01EE58FF4F75
:1003F000C591D49161110EC09FB7F8948C91E22FF2
:10040000E0958E238C932881E223E8839FBFDF91C0
:10041000CF9108958FB7F894EC91E22BEC938FBFB6
:10042000F6CF8E3008F08E508770806480937C0009
:1004300080917A00806480937A0080917A0086FDB2
:10044000FCCF809178009091790008953FB7F8949F
:1004500080916B0190916C01A0916D01B0916E0142
:1004600026B5A89B05C02F3F19F00196A11DB11D0F
:100470003FBFBA2FA92F982F8827BC01CD01620F4B
:10048000711D811D911D42E0660F771F881F991F06
:100490004A95D1F708952FB7F8946091670170914C
:1004A00068018091690190916A012FBF0895FC0154
:1004B00001900020E9F73197AF01481B590BBC01AF
:1004C00089E991E00C9487001F920F920FB60F926A
:1004D00011242F933F934F935F936F937F938F9349
:1004E0009F93AF93BF93EF93FF9389E991E00E94AD
:1004F0000501FF91EF91BF91AF919F918F917F91F6
:100500006F915F914F913F912F910F900FBE0F9080
:100510001F9018951F920F920FB60F9211242F93D0
:100520008F939F93EF93FF93E091A901F091AA011C
:100530008081E091AF01F091B00182FD1BC09081FC
:100540008091B2018F5F8F732091B301821741F0C8
:10055000E091B201F0E0E756FE4F958F8093B20133
:10056000FF91EF919F918F912F910F900FBE0F9060
:100570001F9018958081F4CF1F920F920FB60F92A3
:1005800011242F933F938F939F93AF93BF938091A9
:10059000670190916801A0916901B0916A01309161
:1005A000660123E0230F2D3758F50196A11DB11DDB
:1005B000209366018093670190936801A09369017D
:1005C000B0936A0180916B0190916C01A0916D01D3
:1005D000B0916E010196A11DB11D80936B019093A6
:1005E0006C01A0936D01B0936E01BF91AF919F918B
:1005F0008F913F912F910F900FBE0F901F901895E4
:1006000026E8230F0296A11DB11DD2CF789484B5A0
:10061000826084BD84B5816084BD85B5826085BDFE
:1006200085B5816085BD80916E00816080936E008C
:10063000109281008091810082608093810080917E
:10064000810081608093810080918000816080932F
:1006500080008091B10084608093B1008091B000EF
:1006600081608093B00080917A00846080937A00EA
:1006700080917A00826080937A0080917A00816014
:1006800080937A0080917A00806880937A0010923B
:10069000C100E091A901F091AA0182E08083E0917C
:1006A000A501F091A6011082E091A701F091A801A7
:1006B00080E180831092B101E091AD01F091AE0133
:1006C00086E08083E091AB01F091AC018081806194
:1006D0008083E091AB01F091AC01808188608083E0
:1006E000E091AB01F091AC01808180688083E09162
:1006F000AB01F091AC0180818F7D808361E083E06C
:100700000E94E00160E081E10E94E0010E94260277
:100710004B015C0158EEC52E53E0D52EE12CF12C97
:100720000E942602681979098A099B09683E73406C
:1007300081059105A8F321E0C21AD108E108F1086A
:1007400088EE880E83E0981EA11CB11CC114D10450
:10075000E104F10429F786E191E00E9457029AEA48
:10076000892E912CA12CB12CEE24E394F12C3CE0A9
:10077000432E512C612C712CCAE0D0E048EC242E81
:10078000312C80E0C82E80E0D82E80E10E9411023A
:100790008536910524F0D0939801C093970181E1AB
:1007A0000E9411022BE030E0DC010E94120BA50137
:1007B00094010E94AF0A2F5F3F4F4F4F5F4F30931E
:1007C00096012093950181E10E9411028B3A9105D7
:1007D00034F08CE090E0909396018093950181E154
:1007E0000E94110290939401809393018B3A91059A
:1007F0000CF084C528EC30E0DC010E94120BA5014E
:1008000094010E94AF0A30939201209391010091CC
:1008100091011091920161E086E00E94E0010115D2
:10082000110509F070C560E086E00E94940181E145
:100830000E94110203970CF4ADC5F0929001E09272
:100840008F010E944B0200918B0110918C0120912D
:100850008D0130918E01601B710B820B930B663002
:1008600071058105910508F43BC380918F0190913A
:1008700090012091890130918A012817390709F4E4
:10088000A0C1009741F486E191E00E945702809157
:100890008F019091900190938A01809389010E9429
:1008A0004B0260938B0170938C0180938D01909328
:1008B0008E0180918F0190919001019709F081C183
:1008C00080919501909196010197D1F486E191E094
:1008D0000E945702D0939801C093970180918F0195
:1008E0009091900190938A01809389010E944B021C
:1008F00060938B0170938C0180938D0190938E0196
:1009000080919501909196010297D1F489E191E04F
:100910000E945702D0939801C093970180918F0154
:100920009091900190938A01809389010E944B02DB
:1009300060938B0170938C0180938D0190938E0155
:1009400080919501909196010397D1F48CE191E00B
:100950000E945702D0939801C093970180918F0114
:100960009091900190938A01809389010E944B029B
:1009700060938B0170938C0180938D0190938E0115
:1009800080919501909196010497D1F48FE191E0C7
:100990000E945702D0939801C093970180918F01D4
:1009A0009091900190938A01809389010E944B025B
:1009B00060938B0170938C0180938D0190938E01D5
:1009C00080919501909196010597D1F482E291E092
:1009D0000E945702D0939801C093970180918F0194
:1009E0009091900190938A01809389010E944B021B
:1009F00060938B0170938C0180938D0190938E0195
:100A000080919501909196010697D1F485E291E04D
:100A10000E945702D0939801C093970180918F0153
:100A20009091900190938A01809389010E944B02DA
:100A300060938B0170938C0180938D0190938E0154
:100A400080919501909196010797D1F488E291E009
:100A50000E945702D0939801C093970180918F0113
:100A60009091900190938A01809389010E944B029A
:100A700060938B0170938C0180938D0190938E0114
:100A800080919501909196010897D1F48BE291E0C5
:100A90000E945702D0939801C093970180918F01D3
:100AA0009091900190938A01809389010E944B025A
:100AB00060938B0170938C0180938D0190938E01D4
:100AC00080919501909196010997D1F48EE291E081
:100AD0000E945702D0939801C093970180918F0193
:100AE0009091900190938A01809389010E944B021A
:100AF00060938B0170938C0180938D0190938E0194
:100B000000919501109196010A301105D1F481E30D
:100B100091E00E94570210939801009397018091F1
:100B20008F019091900190938A01809389010E9496
:100B30004B0260938B0170938C0180938D01909395
:100B40008E0180919501909196010B97D1F484E3E9
:100B500091E00E945702D0939801C0939701809131
:100B60008F019091900190938A01809389010E9456
:100B70004B0260938B0170938C0180938D01909355
:100B80008E0180919501909196010C97D1F487E3A5
:100B900091E00E945702D0939801C09397018091F1
:100BA0008F019091900190938A01809389010E9416
:100BB0004B0260938B0170938C0180938D01909315
:100BC0008E0181E10E94110203970CF489C180918A
:100BD0009501909196012091870130918801281705
:100BE000390709F47DC10197D1F486E191E00E94B3
:100BF0005702D0939801C0939701809195019091ED
:100C0000960190938801809387010E944B02609324
:100C10008B0170938C0180938D0190938E01809154
:100C20009501909196010297D1F489E191E00E949B
:100C30005702D0939801C0939701809195019091AC
:100C4000960190938801809387010E944B026093E4
:100C50008B0170938C0180938D0190938E01809114
:100C60009501909196010397D1F48CE191E00E9457
:100C70005702D0939801C09397018091950190916C
:100C8000960190938801809387010E944B026093A4
:100C90008B0170938C0180938D0190938E018091D4
:100CA0009501909196010497D1F48FE191E00E9413
:100CB0005702D0939801C09397018091950190912C
:100CC000960190938801809387010E944B02609364
:100CD0008B0170938C0180938D0190938E01809194
:100CE0009501909196010597D1F482E291E00E94DE
:100CF0005702D0939801C0939701809195019091EC
:100D0000960190938801809387010E944B02609323
:100D10008B0170938C0180938D0190938E01809153
:100D20009501909196010697D1F485E291E00E9499
:100D30005702D0939801C0939701809195019091AB
:100D4000960190938801809387010E944B026093E3
:100D50008B0170938C0180938D0190938E01809113
:100D60009501909196010797D1F488E291E00E9455
:100D70005702D0939801C09397018091950190916B
:100D8000960190938801809387010E944B026093A3
:100D90008B0170938C0180938D0190938E018091D3
:100DA0009501909196010897D1F48BE291E00E9411
:100DB0005702D0939801C09397018091950190912B
:100DC000960190938801809387010E944B02609363
:100DD0008B0170938C0180938D0190938E01809193
:100DE0009501909196010997D1F48EE291E00E94CD
:100DF0005702D0939801C0939701809195019091EB
:100E0000960190938801809387010E944B02609322
:100E10008B0170938C0180938D0190938E010091D2
:100E20009501109196010A301105D1F481E391E00A
:100E30000E945702109398010093970180919501A9
:100E40009091960190938801809387010E944B02B4
:100E500060938B0170938C0180938D0190938E0130
:100E600080919501909196010B97D1F484E391E0E4
:100E70000E945702D0939801C093970180919501E9
:100E80009091960190938801809387010E944B0274
:100E900060938B0170938C0180938D0190938E01F0
:100EA00080919501909196010C97D1F487E391E0A0
:100EB0000E945702D0939801C093970180919501A9
:100EC0009091960190938801809387010E944B0234
:100ED00060938B0170938C0180938D0190938E01B0
:100EE00085E10E941102892B21F4F0928601E092A3
:100EF000850185E10E9411021816190624F410924A
:100F00008601109285010E944B020091850110918B
:100F1000860120918101309182014091830150919D
:100F20008401621B730B840B950B63337105810580
:100F3000910510F180917F019091800108171907A8
:100F4000D9F00130110509F02AC280917D019091FC
:100F50007E01019690937E0180937D011093800124
:100F600000937F010E944B02609381017093820184
:100F7000809383019093840180917F0190918001FF
:100F80000817190769F40130110551F40E944B024A
:100F90006093810170938201809383019093840117
:100FA00080917D0190917E01029724F010927E0144
:100FB00010927D0184E10E9411028130924024F060
:100FC000F0927C01E0927B0184E10E941102813069
:100FD000924024F410927C0110927B0180917B015D
:100FE00090917C012091790130917A01281739077D
:100FF00089F08130910571F420917D0130917E015D
:101000002F5F3F4F30937E0120937D0190937A01B3
:101010008093790183E10E9411028C3092400CF49C
:10102000C3C1F0927801E0927701809177019091AD
:101030007801209175013091760128173907E9F080
:1010400081309105B1F40E94570AA30192010E94D8
:10105000AF0A6F5F7F4F8F4F9F4F70937401609304
:101060007301D0939801C09397018091770190917B
:101070007801909376018093750180917D01909124
:101080007E0120917101309172012817390701F119
:10109000892B61F48AE391E00E94570280917D01DF
:1010A00090917E01909372018093710180917D01F6
:1010B00090917E01019761F48EE391E00E945702C6
:1010C00080917D0190917E019093720180937101D6
:1010D000809173019091740120916F0130917001A2
:1010E0002817390709F4D4C0019761F482E491E02C
:1010F0000E94570280917301909174019093700146
:1011000080936F018091730190917401029761F453
:1011100085E491E00E9457028091730190917401DF
:101120009093700180936F0180917301909174018D
:10113000039761F488E491E00E9457028091730163
:10114000909174019093700180936F01809173016D
:1011500090917401049761F48BE491E00E9457022E
:1011600080917301909174019093700180936F014D
:101170008091730190917401059761F48EE491E080
:101180000E945702809173019091740190937001B5
:1011900080936F018091730190917401069761F4BF
:1011A00081E591E00E945702809173019091740152
:1011B0009093700180936F018091730190917401FD
:1011C000079761F484E591E00E94570280917301D2
:1011D000909174019093700180936F0180917301DD
:1011E00090917401089761F487E591E00E9457029D
:1011F00080917301909174019093700180936F01BD
:101200008091730190917401099761F48AE591E0EE
:101210000E94570280917301909174019093700124
:1012200080936F0180917301909174010A9761F42A
:101230008DE591E00E9457028091730190917401B5
:101240009093700180936F0180917301909174016C
:101250000B9761F480E691E00E9457028091730140
:10126000909174019093700180936F01809173014C
:10127000909174010C9761F483E691E00E9457020B
:1012800080917301909174019093700180936F012C
:1012900080917B0190917C0190937A0180937901F8
:1012A00080917701909178019093760180937501F8
:1012B00080918501909186019093800180937F01B8
:1012C0000091970110919801101611060CF071C051
:1012D00061E083E00E94940101501109109398018C
:1012E00000939701C114D10409F44FCA0E94F10080
:1012F000882309F446CA0E94000043CA3092920132
:101300002092910184CA0F3F110511F461E08CCA4B
:10131000EAEAF0E08491833019F140F48130B1F0D1
:101320008230C9F0003811058CF77DCA873011F181
:10133000883041F18430B1F78091800080628093E1
:10134000800010938B0000938A0071CA84B5806876
:1013500084BD07BD6CCA84B5806284BD08BD67CA00
:1013600080918000806880938000109389000093B2
:1013700088005DCA8091B00080688093B0000093BF
:10138000B30055CA8091B00080628093B000009392
:10139000B4004DCA1092900110928F0152CA10935E
:1013A000800100937F01E8CD1092780110927701BF
:1013B0003CCE60E083E00E94940194CFE9E9F1E043
:1013C0001382128288EE93E0A0E0B0E084839583DC
:1013D000A683B78388E091E09183808385EC90E0D9
:1013E0009587848784EC90E09787868780EC90E0EF
:1013F000918B808B81EC90E0938B828B82EC90E0E0
:10140000958B848B86EC90E0978B868B118E128E59
:10141000138E148E08958F929F92AF92BF92CF92A7
:10142000DF92EF92FF92CF93DF93EC016881798195
:101430008A819B81611571058105910521F464E222
:1014400079ED8BE597E02DE133EF41E050E00E942C
:10145000AF0A49015A019B01AC01A7EAB1E40E941D
:10146000CE0A6B017C01ACEEB4EFA50194010E94A1
:10147000DC0AC60ED71EE81EF91EF7FE06C081E084
:10148000C81AD108E10880E8F80AC882D982EA823D
:10149000FB82C701B6019F77DF91CF91FF90EF905C
:1014A000DF90CF90BF90AF909F908F9008958F92D4
:1014B0009F92AF92BF92CF92DF92EF92FF92609194
:1014C0000001709101018091020190910301611569
:1014D00071058105910521F464E279ED8BE597E0D2
:1014E0002DE133EF41E050E00E94AF0A49015A017B
:1014F0009B01AC01A7EAB1E40E94CE0A6B017C011A
:10150000ACEEB4EFA50194010E94DC0AC60ED71E12
:10151000E81EF91EF7FE06C081E0C81AD108E108EE
:1015200080E8F80AC0920001D0920101E092020125
:10153000F0920301C701B6019F77FF90EF90DF9013
:10154000CF90BF90AF909F908F90089560930001CF
:101550007093010180930201909303010895052E79
:1015600097FB1EF400940E94C60A57FD07D00E9404
:10157000E10A07FC03D04EF40C94C60A509540953E
:10158000309521953F4F4F4F5F4F0895909580952F
:10159000709561957F4F8F4F9F4F08950E94030B69
:1015A000A59F900DB49F900DA49F800D911D1124B7
:1015B0000895B7FF0C94CE0A0E94CE0A821B930BAB
:1015C0000895A1E21A2EAA1BBB1BFD010DC0AA1F84
:1015D000BB1FEE1FFF1FA217B307E407F50720F09C
:1015E000A21BB30BE40BF50B661F771F881F991F17
:1015F0001A9469F760957095809590959B01AC0160
:10160000BD01CF010895A29FB001B39FC001A39F68
:10161000700D811D1124911DB29F700D811D11242B
:10162000911D08950E94030BB7FF0895821B930B31
:101630000895EE0FFF1F0590F491E02D0994F894A2
:02164000FFCFDA
:10164200010000000000000027018700B4007401BF
:10165200E500C300D70061300062300063300064EF
:101662003000653000663000673000683000693055
:10167200006A30006B30006C3000787830007A7A83
:101682003000313000323000333000343000353039
:10169200003630003730003830003930003A300040
:0616A2003B30003C30006B
:107E0000112484B714BE81FFF0D085E080938100F7
:107E100082E08093C00088E18093C10086E0809377
:107E2000C20080E18093C4008EE0C9D0259A86E02C
:107E300020E33CEF91E0309385002093840096BBD3
:107E4000B09BFECF1D9AA8958150A9F7CC24DD24C4
:107E500088248394B5E0AB2EA1E19A2EF3E0BF2EE7
:107E6000A2D0813461F49FD0082FAFD0023811F036
:107E7000013811F484E001C083E08DD089C08234E0
:107E800011F484E103C0853419F485E0A6D080C0E4
:107E9000853579F488D0E82EFF2485D0082F10E0AE
:107EA000102F00270E291F29000F111F8ED06801E7
:107EB0006FC0863521F484E090D080E0DECF843638
:107EC00009F040C070D06FD0082F6DD080E0C81688
:107ED00080E7D80618F4F601B7BEE895C0E0D1E017
:107EE00062D089930C17E1F7F0E0CF16F0E7DF06D8
:107EF00018F0F601B7BEE89568D007B600FCFDCFD4
:107F0000A601A0E0B1E02C9130E011968C91119780
:107F100090E0982F8827822B932B1296FA010C0160
:107F200087BEE89511244E5F5F4FF1E0A038BF0790
:107F300051F7F601A7BEE89507B600FCFDCF97BE46
:107F4000E89526C08437B1F42ED02DD0F82E2BD052
:107F50003CD0F601EF2C8F010F5F1F4F84911BD097
:107F6000EA94F801C1F70894C11CD11CFA94CF0C13
:107F7000D11C0EC0853739F428D08EE10CD085E9AC
:107F80000AD08FE07ACF813511F488E018D01DD067
:107F900080E101D065CF982F8091C00085FFFCCF94
:107FA0009093C60008958091C00087FFFCCF809118
:107FB000C00084FD01C0A8958091C6000895E0E648
:107FC000F0E098E1908380830895EDDF803219F02E
:107FD00088E0F5DFFFCF84E1DECF1F93182FE3DFCA
:107FE0001150E9F7F2DF1F91089580E0E8DFEE27F6
:047FF000FF270994CA
:027FFE00040479
:0400000300007E007B
:00000001FF
